{
  "address": "0x4913761d297c38beBA4C07c320aBb043a7f752cE",
  "abi": [
    {
      "inputs": [
        {
          "internalType": "address",
          "name": "priceFeedAddress",
          "type": "address"
        }
      ],
      "stateMutability": "nonpayable",
      "type": "constructor"
    },
    {
      "inputs": [],
      "name": "NotOwner",
      "type": "error"
    },
    {
      "stateMutability": "payable",
      "type": "fallback"
    },
    {
      "inputs": [],
      "name": "MINIMUM_USD",
      "outputs": [
        {
          "internalType": "uint256",
          "name": "",
          "type": "uint256"
        }
      ],
      "stateMutability": "view",
      "type": "function"
    },
    {
      "inputs": [
        {
          "internalType": "address",
          "name": "",
          "type": "address"
        }
      ],
      "name": "addressToAmountFunded",
      "outputs": [
        {
          "internalType": "uint256",
          "name": "",
          "type": "uint256"
        }
      ],
      "stateMutability": "view",
      "type": "function"
    },
    {
      "inputs": [],
      "name": "fund",
      "outputs": [],
      "stateMutability": "payable",
      "type": "function"
    },
    {
      "inputs": [
        {
          "internalType": "uint256",
          "name": "",
          "type": "uint256"
        }
      ],
      "name": "funders",
      "outputs": [
        {
          "internalType": "address",
          "name": "",
          "type": "address"
        }
      ],
      "stateMutability": "view",
      "type": "function"
    },
    {
      "inputs": [],
      "name": "getContractBalance",
      "outputs": [
        {
          "internalType": "uint256",
          "name": "",
          "type": "uint256"
        }
      ],
      "stateMutability": "view",
      "type": "function"
    },
    {
      "inputs": [],
      "name": "i_owner",
      "outputs": [
        {
          "internalType": "address",
          "name": "",
          "type": "address"
        }
      ],
      "stateMutability": "view",
      "type": "function"
    },
    {
      "inputs": [],
      "name": "priceFeed",
      "outputs": [
        {
          "internalType": "contract AggregatorV3Interface",
          "name": "",
          "type": "address"
        }
      ],
      "stateMutability": "view",
      "type": "function"
    },
    {
      "inputs": [],
      "name": "withdraw",
      "outputs": [],
      "stateMutability": "nonpayable",
      "type": "function"
    },
    {
      "stateMutability": "payable",
      "type": "receive"
    }
  ],
  "transactionHash": "0xa1ca57ef493b564b3aba51167e4c23e1bae613d0b5bddc45df02a1516115a52f",
  "args": [
    "0xD4a33860578De61DBAbDc8BFdb98FD742fA7028e"
  ],
  "numDeployments": 1,
  "solcInputHash": "bacf32fafb1b4facb4018a05a2a414cd",
  "bytecode": "0x60a060405234801561001057600080fd5b50604051620010263803806200102683398181016040528101906100349190610115565b3373ffffffffffffffffffffffffffffffffffffffff1660808173ffffffffffffffffffffffffffffffffffffffff1660601b8152505080600260006101000a81548173ffffffffffffffffffffffffffffffffffffffff021916908373ffffffffffffffffffffffffffffffffffffffff16021790555050610142565b600080fd5b600073ffffffffffffffffffffffffffffffffffffffff82169050919050565b60006100e2826100b7565b9050919050565b6100f2816100d7565b81146100fd57600080fd5b50565b60008151905061010f816100e9565b92915050565b60006020828403121561012b5761012a6100b2565b5b600061013984828501610100565b91505092915050565b60805160601c610ebe620001686000396000818161031c01526105af0152610ebe6000f3fe60806040526004361061007f5760003560e01c8063741bef1a1161004e578063741bef1a14610142578063b60d42881461016d578063dba6335f14610177578063dc0d3dff146101a25761008e565b80633ccfd60b146100985780633e47d6f3146100af5780636b69a592146100ec5780636f9fb98a146101175761008e565b3661008e5761008c6101df565b005b6100966101df565b005b3480156100a457600080fd5b506100ad61031a565b005b3480156100bb57600080fd5b506100d660048036038101906100d191906107f6565b61055a565b6040516100e3919061083c565b60405180910390f35b3480156100f857600080fd5b50610101610572565b60405161010e919061083c565b60405180910390f35b34801561012357600080fd5b5061012c61057f565b604051610139919061083c565b60405180910390f35b34801561014e57600080fd5b50610157610587565b60405161016491906108b6565b60405180910390f35b6101756101df565b005b34801561018357600080fd5b5061018c6105ad565b60405161019991906108e0565b60405180910390f35b3480156101ae57600080fd5b506101c960048036038101906101c49190610927565b6105d1565b6040516101d691906108e0565b60405180910390f35b6802b5e3af16b188000061021e600260009054906101000a900473ffffffffffffffffffffffffffffffffffffffff163461061090919063ffffffff16565b101561025f576040517f08c379a0000000000000000000000000000000000000000000000000000000008152600401610256906109b1565b60405180910390fd5b6000339080600181540180825580915050600190039060005260206000200160009091909190916101000a81548173ffffffffffffffffffffffffffffffffffffffff021916908373ffffffffffffffffffffffffffffffffffffffff16021790555034600160003373ffffffffffffffffffffffffffffffffffffffff1673ffffffffffffffffffffffffffffffffffffffff16815260200190815260200160002060008282546103119190610a00565b92505081905550565b7f000000000000000000000000000000000000000000000000000000000000000073ffffffffffffffffffffffffffffffffffffffff163373ffffffffffffffffffffffffffffffffffffffff161461039f576040517f30cd747100000000000000000000000000000000000000000000000000000000815260040160405180910390fd5b60005b60008054905081101561044a5760008082815481106103c4576103c3610a56565b5b9060005260206000200160009054906101000a900473ffffffffffffffffffffffffffffffffffffffff1690506000600160008373ffffffffffffffffffffffffffffffffffffffff1673ffffffffffffffffffffffffffffffffffffffff1681526020019081526020016000208190555050808061044290610a85565b9150506103a2565b50600067ffffffffffffffff81111561046657610465610ace565b5b6040519080825280602002602001820160405280156104945781602001602082028036833780820191505090505b50600090805190602001906104aa9291906106ec565b5060003373ffffffffffffffffffffffffffffffffffffffff16476040516104d190610b2e565b60006040518083038185875af1925050503d806000811461050e576040519150601f19603f3d011682016040523d82523d6000602084013e610513565b606091505b5050905080610557576040517f08c379a000000000000000000000000000000000000000000000000000000000815260040161054e90610b8f565b60405180910390fd5b50565b60016020528060005260406000206000915090505481565b6802b5e3af16b188000081565b600047905090565b600260009054906101000a900473ffffffffffffffffffffffffffffffffffffffff1681565b7f000000000000000000000000000000000000000000000000000000000000000081565b600081815481106105e157600080fd5b906000526020600020016000915054906101000a900473ffffffffffffffffffffffffffffffffffffffff1681565b60008061061c8361064c565b90506000670de0b6b3a764000082866106359190610baf565b61063f9190610c38565b9050809250505092915050565b6000808273ffffffffffffffffffffffffffffffffffffffff1663feaf968c6040518163ffffffff1660e01b815260040160a06040518083038186803b15801561069557600080fd5b505afa1580156106a9573d6000803e3d6000fd5b505050506040513d601f19601f820116820180604052508101906106cd9190610cf6565b5050509150506402540be400816106e49190610d71565b915050919050565b828054828255906000526020600020908101928215610765579160200282015b828111156107645782518260006101000a81548173ffffffffffffffffffffffffffffffffffffffff021916908373ffffffffffffffffffffffffffffffffffffffff1602179055509160200191906001019061070c565b5b5090506107729190610776565b5090565b5b8082111561078f576000816000905550600101610777565b5090565b600080fd5b600073ffffffffffffffffffffffffffffffffffffffff82169050919050565b60006107c382610798565b9050919050565b6107d3816107b8565b81146107de57600080fd5b50565b6000813590506107f0816107ca565b92915050565b60006020828403121561080c5761080b610793565b5b600061081a848285016107e1565b91505092915050565b6000819050919050565b61083681610823565b82525050565b6000602082019050610851600083018461082d565b92915050565b6000819050919050565b600061087c61087761087284610798565b610857565b610798565b9050919050565b600061088e82610861565b9050919050565b60006108a082610883565b9050919050565b6108b081610895565b82525050565b60006020820190506108cb60008301846108a7565b92915050565b6108da816107b8565b82525050565b60006020820190506108f560008301846108d1565b92915050565b61090481610823565b811461090f57600080fd5b50565b600081359050610921816108fb565b92915050565b60006020828403121561093d5761093c610793565b5b600061094b84828501610912565b91505092915050565b600082825260208201905092915050565b7f596f75206e65656420746f207370656e64206d6f726520455448210000000000600082015250565b600061099b601b83610954565b91506109a682610965565b602082019050919050565b600060208201905081810360008301526109ca8161098e565b9050919050565b7f4e487b7100000000000000000000000000000000000000000000000000000000600052601160045260246000fd5b6000610a0b82610823565b9150610a1683610823565b9250827fffffffffffffffffffffffffffffffffffffffffffffffffffffffffffffffff03821115610a4b57610a4a6109d1565b5b828201905092915050565b7f4e487b7100000000000000000000000000000000000000000000000000000000600052603260045260246000fd5b6000610a9082610823565b91507fffffffffffffffffffffffffffffffffffffffffffffffffffffffffffffffff821415610ac357610ac26109d1565b5b600182019050919050565b7f4e487b7100000000000000000000000000000000000000000000000000000000600052604160045260246000fd5b600081905092915050565b50565b6000610b18600083610afd565b9150610b2382610b08565b600082019050919050565b6000610b3982610b0b565b9150819050919050565b7f43616c6c204661696c6564000000000000000000000000000000000000000000600082015250565b6000610b79600b83610954565b9150610b8482610b43565b602082019050919050565b60006020820190508181036000830152610ba881610b6c565b9050919050565b6000610bba82610823565b9150610bc583610823565b9250817fffffffffffffffffffffffffffffffffffffffffffffffffffffffffffffffff0483118215151615610bfe57610bfd6109d1565b5b828202905092915050565b7f4e487b7100000000000000000000000000000000000000000000000000000000600052601260045260246000fd5b6000610c4382610823565b9150610c4e83610823565b925082610c5e57610c5d610c09565b5b828204905092915050565b600069ffffffffffffffffffff82169050919050565b610c8881610c69565b8114610c9357600080fd5b50565b600081519050610ca581610c7f565b92915050565b6000819050919050565b610cbe81610cab565b8114610cc957600080fd5b50565b600081519050610cdb81610cb5565b92915050565b600081519050610cf0816108fb565b92915050565b600080600080600060a08688031215610d1257610d11610793565b5b6000610d2088828901610c96565b9550506020610d3188828901610ccc565b9450506040610d4288828901610ce1565b9350506060610d5388828901610ce1565b9250506080610d6488828901610c96565b9150509295509295909350565b6000610d7c82610cab565b9150610d8783610cab565b9250827f7fffffffffffffffffffffffffffffffffffffffffffffffffffffffffffffff0482116000841360008413161615610dc657610dc56109d1565b5b817f80000000000000000000000000000000000000000000000000000000000000000583126000841260008413161615610e0357610e026109d1565b5b827f80000000000000000000000000000000000000000000000000000000000000000582126000841360008412161615610e4057610e3f6109d1565b5b827f7fffffffffffffffffffffffffffffffffffffffffffffffffffffffffffffff0582126000841260008412161615610e7d57610e7c6109d1565b5b82820290509291505056fea26469706673582212207acbdd148536be39c2d848ca006c4638f4de0dbafe9b00d2f3474944f36413dd64736f6c63430008080033",
  "devdoc": {
    "kind": "dev",
    "methods": {},
    "version": 1
  },
  "userdoc": {
    "kind": "user",
    "methods": {},
    "version": 1
  },
  "storageLayout": {
    "storage": [
      {
        "astId": 62,
        "contract": "contracts/FundMe.sol:FundMe",
        "label": "funders",
        "offset": 0,
        "slot": "0",
        "type": "t_array(t_address)dyn_storage"
      },
      {
        "astId": 66,
        "contract": "contracts/FundMe.sol:FundMe",
        "label": "addressToAmountFunded",
        "offset": 0,
        "slot": "1",
        "type": "t_mapping(t_address,t_uint256)"
      },
      {
        "astId": 71,
        "contract": "contracts/FundMe.sol:FundMe",
        "label": "priceFeed",
        "offset": 0,
        "slot": "2",
        "type": "t_contract(AggregatorV3Interface)45"
      }
    ],
    "types": {
      "t_address": {
        "encoding": "inplace",
        "label": "address",
        "numberOfBytes": "20"
      },
      "t_array(t_address)dyn_storage": {
        "base": "t_address",
        "encoding": "dynamic_array",
        "label": "address[]",
        "numberOfBytes": "32"
      },
      "t_contract(AggregatorV3Interface)45": {
        "encoding": "inplace",
        "label": "contract AggregatorV3Interface",
        "numberOfBytes": "20"
      },
      "t_mapping(t_address,t_uint256)": {
        "encoding": "mapping",
        "key": "t_address",
        "label": "mapping(address => uint256)",
        "numberOfBytes": "32",
        "value": "t_uint256"
      },
      "t_uint256": {
        "encoding": "inplace",
        "label": "uint256",
        "numberOfBytes": "32"
      }
    }
  }
}